{
  "_format": "hh-sol-artifact-1",
  "contractName": "RockPaperScissors",
  "sourceName": "contracts/RockPaperScissors.sol",
  "abi": [
    {
      "inputs": [
        {
          "internalType": "address",
          "name": "_token",
          "type": "address"
        },
        {
          "internalType": "address",
          "name": "_judge",
          "type": "address"
        }
      ],
      "stateMutability": "nonpayable",
      "type": "constructor"
    },
    {
      "anonymous": false,
      "inputs": [
        {
          "indexed": true,
          "internalType": "address",
          "name": "player",
          "type": "address"
        },
        {
          "indexed": false,
          "internalType": "bytes32",
          "name": "playerThrowHash",
          "type": "bytes32"
        },
        {
          "indexed": true,
          "internalType": "uint256",
          "name": "id",
          "type": "uint256"
        }
      ],
      "name": "GameMatched",
      "type": "event"
    },
    {
      "anonymous": false,
      "inputs": [
        {
          "indexed": true,
          "internalType": "address",
          "name": "winer",
          "type": "address"
        },
        {
          "indexed": false,
          "internalType": "uint256",
          "name": "bankerSalt",
          "type": "uint256"
        },
        {
          "indexed": false,
          "internalType": "uint256",
          "name": "playerSalt",
          "type": "uint256"
        },
        {
          "indexed": true,
          "internalType": "uint256",
          "name": "id",
          "type": "uint256"
        }
      ],
      "name": "GameResult",
      "type": "event"
    },
    {
      "anonymous": false,
      "inputs": [
        {
          "indexed": true,
          "internalType": "address",
          "name": "banker",
          "type": "address"
        },
        {
          "indexed": false,
          "internalType": "bytes32",
          "name": "bankerThrowHash",
          "type": "bytes32"
        },
        {
          "indexed": false,
          "internalType": "uint256",
          "name": "stakes",
          "type": "uint256"
        },
        {
          "indexed": true,
          "internalType": "uint256",
          "name": "id",
          "type": "uint256"
        }
      ],
      "name": "GameSetup",
      "type": "event"
    },
    {
      "anonymous": false,
      "inputs": [
        {
          "indexed": true,
          "internalType": "address",
          "name": "sender",
          "type": "address"
        },
        {
          "indexed": false,
          "internalType": "address",
          "name": "from",
          "type": "address"
        },
        {
          "indexed": false,
          "internalType": "address",
          "name": "to",
          "type": "address"
        }
      ],
      "name": "JudgeUpdated",
      "type": "event"
    },
    {
      "anonymous": false,
      "inputs": [
        {
          "indexed": true,
          "internalType": "address",
          "name": "previousOwner",
          "type": "address"
        },
        {
          "indexed": true,
          "internalType": "address",
          "name": "newOwner",
          "type": "address"
        }
      ],
      "name": "OwnershipTransferred",
      "type": "event"
    },
    {
      "inputs": [],
      "name": "allGameLength",
      "outputs": [
        {
          "internalType": "uint256",
          "name": "",
          "type": "uint256"
        }
      ],
      "stateMutability": "view",
      "type": "function"
    },
    {
      "inputs": [
        {
          "internalType": "uint256",
          "name": "",
          "type": "uint256"
        }
      ],
      "name": "allGames",
      "outputs": [
        {
          "internalType": "uint256",
          "name": "",
          "type": "uint256"
        }
      ],
      "stateMutability": "view",
      "type": "function"
    },
    {
      "inputs": [
        {
          "internalType": "enum IRockPaperScissorsStructs.ThrowType",
          "name": "bankerThrowType",
          "type": "uint8"
        },
        {
          "internalType": "enum IRockPaperScissorsStructs.ThrowType",
          "name": "playerThrowType",
          "type": "uint8"
        }
      ],
      "name": "duel",
      "outputs": [
        {
          "internalType": "enum IRockPaperScissorsStructs.WinnerType",
          "name": "",
          "type": "uint8"
        }
      ],
      "stateMutability": "pure",
      "type": "function"
    },
    {
      "inputs": [
        {
          "internalType": "enum IRockPaperScissorsStructs.ThrowType",
          "name": "throwType",
          "type": "uint8"
        },
        {
          "internalType": "uint256",
          "name": "salt",
          "type": "uint256"
        }
      ],
      "name": "encodeThrowHash",
      "outputs": [
        {
          "internalType": "bytes32",
          "name": "",
          "type": "bytes32"
        }
      ],
      "stateMutability": "view",
      "type": "function"
    },
    {
      "inputs": [
        {
          "internalType": "uint256",
          "name": "",
          "type": "uint256"
        }
      ],
      "name": "gameIdx",
      "outputs": [
        {
          "internalType": "uint256",
          "name": "",
          "type": "uint256"
        }
      ],
      "stateMutability": "view",
      "type": "function"
    },
    {
      "inputs": [
        {
          "internalType": "uint256",
          "name": "",
          "type": "uint256"
        }
      ],
      "name": "games",
      "outputs": [
        {
          "internalType": "address",
          "name": "banker",
          "type": "address"
        },
        {
          "internalType": "address",
          "name": "player",
          "type": "address"
        },
        {
          "internalType": "bytes32",
          "name": "bankerThrowHash",
          "type": "bytes32"
        },
        {
          "internalType": "bytes32",
          "name": "playerThrowHash",
          "type": "bytes32"
        },
        {
          "internalType": "uint256",
          "name": "stakes",
          "type": "uint256"
        }
      ],
      "stateMutability": "view",
      "type": "function"
    },
    {
      "inputs": [
        {
          "internalType": "uint256",
          "name": "idx",
          "type": "uint256"
        }
      ],
      "name": "getId",
      "outputs": [
        {
          "internalType": "uint256",
          "name": "",
          "type": "uint256"
        }
      ],
      "stateMutability": "view",
      "type": "function"
    },
    {
      "inputs": [],
      "name": "idCounter",
      "outputs": [
        {
          "internalType": "uint256",
          "name": "_value",
          "type": "uint256"
        }
      ],
      "stateMutability": "view",
      "type": "function"
    },
    {
      "inputs": [],
      "name": "judge",
      "outputs": [
        {
          "internalType": "address",
          "name": "",
          "type": "address"
        }
      ],
      "stateMutability": "view",
      "type": "function"
    },
    {
      "inputs": [
        {
          "internalType": "bytes32",
          "name": "throwHash",
          "type": "bytes32"
        },
        {
          "internalType": "uint256",
          "name": "id",
          "type": "uint256"
        }
      ],
      "name": "matchGame",
      "outputs": [],
      "stateMutability": "nonpayable",
      "type": "function"
    },
    {
      "inputs": [
        {
          "internalType": "bytes32",
          "name": "throwHash",
          "type": "bytes32"
        },
        {
          "internalType": "uint256",
          "name": "stakes",
          "type": "uint256"
        }
      ],
      "name": "newGame",
      "outputs": [],
      "stateMutability": "nonpayable",
      "type": "function"
    },
    {
      "inputs": [],
      "name": "owner",
      "outputs": [
        {
          "internalType": "address",
          "name": "",
          "type": "address"
        }
      ],
      "stateMutability": "view",
      "type": "function"
    },
    {
      "inputs": [],
      "name": "renounceOwnership",
      "outputs": [],
      "stateMutability": "nonpayable",
      "type": "function"
    },
    {
      "inputs": [
        {
          "internalType": "address",
          "name": "_judge",
          "type": "address"
        }
      ],
      "name": "setJudge",
      "outputs": [],
      "stateMutability": "nonpayable",
      "type": "function"
    },
    {
      "inputs": [
        {
          "internalType": "uint256",
          "name": "id",
          "type": "uint256"
        },
        {
          "internalType": "uint256",
          "name": "bankerSalt",
          "type": "uint256"
        },
        {
          "internalType": "uint256",
          "name": "playerSalt",
          "type": "uint256"
        }
      ],
      "name": "showdown",
      "outputs": [],
      "stateMutability": "nonpayable",
      "type": "function"
    },
    {
      "inputs": [],
      "name": "token",
      "outputs": [
        {
          "internalType": "address",
          "name": "",
          "type": "address"
        }
      ],
      "stateMutability": "view",
      "type": "function"
    },
    {
      "inputs": [
        {
          "internalType": "address",
          "name": "newOwner",
          "type": "address"
        }
      ],
      "name": "transferOwnership",
      "outputs": [],
      "stateMutability": "nonpayable",
      "type": "function"
    },
    {
      "inputs": [
        {
          "internalType": "bytes32",
          "name": "throwHash",
          "type": "bytes32"
        },
        {
          "internalType": "address",
          "name": "sender",
          "type": "address"
        },
        {
          "internalType": "uint256",
          "name": "salt",
          "type": "uint256"
        }
      ],
      "name": "verifyThrowHash",
      "outputs": [
        {
          "internalType": "enum IRockPaperScissorsStructs.ThrowType",
          "name": "result",
          "type": "uint8"
        }
      ],
      "stateMutability": "pure",
      "type": "function"
    }
  ],
  "bytecode": "0x60806040523480156200001157600080fd5b50604051620026b8380380620026b8833981810160405281019062000037919062000217565b620000576200004b620000e160201b60201c565b620000e960201b60201c565b80600560006101000a81548173ffffffffffffffffffffffffffffffffffffffff021916908373ffffffffffffffffffffffffffffffffffffffff16021790555081600660006101000a81548173ffffffffffffffffffffffffffffffffffffffff021916908373ffffffffffffffffffffffffffffffffffffffff16021790555050506200025e565b600033905090565b60008060009054906101000a900473ffffffffffffffffffffffffffffffffffffffff169050816000806101000a81548173ffffffffffffffffffffffffffffffffffffffff021916908373ffffffffffffffffffffffffffffffffffffffff1602179055508173ffffffffffffffffffffffffffffffffffffffff168173ffffffffffffffffffffffffffffffffffffffff167f8be0079c531659141344cd1fd0a4f28419497f9722a3daafe3b4186f6b6457e060405160405180910390a35050565b600080fd5b600073ffffffffffffffffffffffffffffffffffffffff82169050919050565b6000620001df82620001b2565b9050919050565b620001f181620001d2565b8114620001fd57600080fd5b50565b6000815190506200021181620001e6565b92915050565b60008060408385031215620002315762000230620001ad565b5b6000620002418582860162000200565b9250506020620002548582860162000200565b9150509250929050565b61244a806200026e6000396000f3fe608060405234801561001057600080fd5b50600436106101165760003560e01c8063a0b55095116100a2578063eb08ab2811610071578063eb08ab28146102e3578063f2fde38b14610301578063f601585b1461031d578063f9e18cca1461034d578063fc0c546a1461037d57610116565b8063a0b550951461024b578063b157c5cd1461027b578063b8abae9814610297578063bbd1d763146102b357610116565b8063573255f4116100e9578063573255f4146101cb5780636a361175146101e9578063715018a6146102055780638da5cb5b1461020f57806397f991371461022d57610116565b80630f704a8f1461011b578063117a5b9014610137578063545a153a1461016b57806354bfc2f51461019b575b600080fd5b61013560048036038101906101309190611801565b61039b565b005b610151600480360381019061014c9190611841565b61078a565b6040516101629594939291906118cd565b60405180910390f35b61018560048036038101906101809190611841565b610800565b6040516101929190611920565b60405180910390f35b6101b560048036038101906101b09190611960565b610828565b6040516101c29190611a17565b60405180910390f35b6101d36108f7565b6040516101e09190611a32565b60405180910390f35b61020360048036038101906101fe9190611801565b61091d565b005b61020d610d56565b005b610217610d6a565b6040516102249190611a32565b60405180910390f35b610235610d93565b6040516102429190611920565b60405180910390f35b61026560048036038101906102609190611841565b610da0565b6040516102729190611920565b60405180910390f35b61029560048036038101906102909190611a79565b610dc4565b005b6102b160048036038101906102ac9190611aa6565b610e10565b005b6102cd60048036038101906102c89190611af9565b61102a565b6040516102da9190611b39565b60405180910390f35b6102eb611044565b6040516102f89190611920565b60405180910390f35b61031b60048036038101906103169190611a79565b611050565b005b61033760048036038101906103329190611b54565b6110d3565b6040516103449190611bef565b60405180910390f35b61036760048036038101906103629190611841565b611194565b6040516103749190611920565b60405180910390f35b6103856111ac565b6040516103929190611a32565b60405180910390f35b3373ffffffffffffffffffffffffffffffffffffffff16600560009054906101000a900473ffffffffffffffffffffffffffffffffffffffff1673ffffffffffffffffffffffffffffffffffffffff160361042b576040517f08c379a000000000000000000000000000000000000000000000000000000000815260040161042290611c67565b60405180910390fd5b60003390506000600660009054906101000a900473ffffffffffffffffffffffffffffffffffffffff1673ffffffffffffffffffffffffffffffffffffffff1663dd62ed3e83306040518363ffffffff1660e01b815260040161048f929190611c87565b602060405180830381865afa1580156104ac573d6000803e3d6000fd5b505050506040513d601f19601f820116820180604052508101906104d09190611cc5565b905082811015610515576040517f08c379a000000000000000000000000000000000000000000000000000000000815260040161050c90611d3e565b60405180910390fd5b600660009054906101000a900473ffffffffffffffffffffffffffffffffffffffff1673ffffffffffffffffffffffffffffffffffffffff166323b872dd8330866040518463ffffffff1660e01b815260040161057493929190611d5e565b6020604051808303816000875af1158015610593573d6000803e3d6000fd5b505050506040513d601f19601f820116820180604052508101906105b79190611dcd565b506105c260046111d2565b60006105ce60046111e8565b90506040518060a001604052808473ffffffffffffffffffffffffffffffffffffffff168152602001600073ffffffffffffffffffffffffffffffffffffffff16815260200186815260200160008019168152602001858152506001600083815260200190815260200160002060008201518160000160006101000a81548173ffffffffffffffffffffffffffffffffffffffff021916908373ffffffffffffffffffffffffffffffffffffffff16021790555060208201518160010160006101000a81548173ffffffffffffffffffffffffffffffffffffffff021916908373ffffffffffffffffffffffffffffffffffffffff1602179055506040820151816002015560608201518160030155608082015181600401559050506106f2610d93565b60026000838152602001908152602001600020819055506003819080600181540180825580915050600190039060005260206000200160009091909190915055808373ffffffffffffffffffffffffffffffffffffffff167ffb3946a74723143390c5056cb9728aab012b3fa93b48938118a775421325c3ec878760405161077b929190611dfa565b60405180910390a35050505050565b60016020528060005260406000206000915090508060000160009054906101000a900473ffffffffffffffffffffffffffffffffffffffff16908060010160009054906101000a900473ffffffffffffffffffffffffffffffffffffffff16908060020154908060030154908060040154905085565b60006003828154811061081657610815611e23565b5b90600052602060002001549050919050565b60008083600281111561083e5761083d6119a0565b5b90506000836002811115610855576108546119a0565b5b90508060ff168260ff160361086f576002925050506108f1565b60008260ff16036108985760028160ff161461088c57600161088f565b60005b925050506108f1565b60018260ff16036108c15760008160ff16146108b55760016108b8565b60005b925050506108f1565b60028260ff16036108ea5760018160ff16146108de5760016108e1565b60005b925050506108f1565b6002925050505b92915050565b600560009054906101000a900473ffffffffffffffffffffffffffffffffffffffff1681565b8060006001600083815260200190815260200160002060000160009054906101000a900473ffffffffffffffffffffffffffffffffffffffff169050600073ffffffffffffffffffffffffffffffffffffffff168173ffffffffffffffffffffffffffffffffffffffff16036109c8576040517f08c379a00000000000000000000000000000000000000000000000000000000081526004016109bf90611e9e565b60405180910390fd5b8260006001600083815260200190815260200160002060000160009054906101000a900473ffffffffffffffffffffffffffffffffffffffff1690503373ffffffffffffffffffffffffffffffffffffffff168173ffffffffffffffffffffffffffffffffffffffff1603610a72576040517f08c379a0000000000000000000000000000000000000000000000000000000008152600401610a6990611f0a565b60405180910390fd5b3373ffffffffffffffffffffffffffffffffffffffff16600560009054906101000a900473ffffffffffffffffffffffffffffffffffffffff1673ffffffffffffffffffffffffffffffffffffffff1603610b02576040517f08c379a0000000000000000000000000000000000000000000000000000000008152600401610af990611c67565b60405180910390fd5b600033905060006001600088815260200190815260200160002090506000600660009054906101000a900473ffffffffffffffffffffffffffffffffffffffff1673ffffffffffffffffffffffffffffffffffffffff1663dd62ed3e84306040518363ffffffff1660e01b8152600401610b7d929190611c87565b602060405180830381865afa158015610b9a573d6000803e3d6000fd5b505050506040513d601f19601f82011682018060405250810190610bbe9190611cc5565b905060008260040154905080821015610c0c576040517f08c379a0000000000000000000000000000000000000000000000000000000008152600401610c0390611d3e565b60405180910390fd5b600660009054906101000a900473ffffffffffffffffffffffffffffffffffffffff1673ffffffffffffffffffffffffffffffffffffffff166323b872dd8530846040518463ffffffff1660e01b8152600401610c6b93929190611d5e565b6020604051808303816000875af1158015610c8a573d6000803e3d6000fd5b505050506040513d601f19601f82011682018060405250810190610cae9190611dcd565b50838360010160006101000a81548173ffffffffffffffffffffffffffffffffffffffff021916908373ffffffffffffffffffffffffffffffffffffffff160217905550898360030181905550888473ffffffffffffffffffffffffffffffffffffffff167f0825967cf25def4102002c8caab65191d847fdf6e05578ff488df441f195bebe8c604051610d429190611b39565b60405180910390a350505050505050505050565b610d5e6111f6565b610d686000611274565b565b60008060009054906101000a900473ffffffffffffffffffffffffffffffffffffffff16905090565b6000600380549050905090565b60038181548110610db057600080fd5b906000526020600020016000915090505481565b610dcc6111f6565b80600560006101000a81548173ffffffffffffffffffffffffffffffffffffffff021916908373ffffffffffffffffffffffffffffffffffffffff16021790555050565b3373ffffffffffffffffffffffffffffffffffffffff16600560009054906101000a900473ffffffffffffffffffffffffffffffffffffffff1673ffffffffffffffffffffffffffffffffffffffff1614610ea0576040517f08c379a0000000000000000000000000000000000000000000000000000000008152600401610e9790611f76565b60405180910390fd5b600060016000858152602001908152602001600020905060008160000160009054906101000a900473ffffffffffffffffffffffffffffffffffffffff16905060008260010160009054906101000a900473ffffffffffffffffffffffffffffffffffffffff1690506000610f1a846002015484886110d3565b90506000610f2d856003015484886110d3565b90506000610f3b8383610828565b90506000600280811115610f5257610f516119a0565b5b826002811115610f6557610f646119a0565b5b03610f7e57610f7986868960040154611338565b610fc4565b60006002811115610f9257610f916119a0565b5b826002811115610fa557610fa46119a0565b5b14610fb05784610fb2565b855b9050610fc281886004015461147f565b505b610fcd8a611603565b898173ffffffffffffffffffffffffffffffffffffffff167fb23ab49b4ba9602e729f07366027f225f26e664a9cfec60a5ed4cbf87a81fb048b8b604051611016929190611f96565b60405180910390a350505050505050505050565b60008033905061103b818585611752565b91505092915050565b60048060000154905081565b6110586111f6565b600073ffffffffffffffffffffffffffffffffffffffff168173ffffffffffffffffffffffffffffffffffffffff16036110c7576040517f08c379a00000000000000000000000000000000000000000000000000000000081526004016110be90612031565b60405180910390fd5b6110d081611274565b50565b60006110e183600084611752565b84036110f0576000905061118d565b6110fc83600184611752565b840361110b576001905061118c565b61111783600284611752565b8403611126576002905061118b565b60008360405160200161113991906120f0565b60405160208183030381529060405290611189576040517f08c379a00000000000000000000000000000000000000000000000000000000081526004016111809190612195565b60405180910390fd5b505b5b5b9392505050565b60026020528060005260406000206000915090505481565b600660009054906101000a900473ffffffffffffffffffffffffffffffffffffffff1681565b6001816000016000828254019250508190555050565b600081600001549050919050565b6111fe611788565b73ffffffffffffffffffffffffffffffffffffffff1661121c610d6a565b73ffffffffffffffffffffffffffffffffffffffff1614611272576040517f08c379a000000000000000000000000000000000000000000000000000000000815260040161126990612203565b60405180910390fd5b565b60008060009054906101000a900473ffffffffffffffffffffffffffffffffffffffff169050816000806101000a81548173ffffffffffffffffffffffffffffffffffffffff021916908373ffffffffffffffffffffffffffffffffffffffff1602179055508173ffffffffffffffffffffffffffffffffffffffff168173ffffffffffffffffffffffffffffffffffffffff167f8be0079c531659141344cd1fd0a4f28419497f9722a3daafe3b4186f6b6457e060405160405180910390a35050565b600660009054906101000a900473ffffffffffffffffffffffffffffffffffffffff1673ffffffffffffffffffffffffffffffffffffffff1663a9059cbb84836040518363ffffffff1660e01b8152600401611395929190612223565b6020604051808303816000875af11580156113b4573d6000803e3d6000fd5b505050506040513d601f19601f820116820180604052508101906113d89190611dcd565b50600660009054906101000a900473ffffffffffffffffffffffffffffffffffffffff1673ffffffffffffffffffffffffffffffffffffffff1663a9059cbb83836040518363ffffffff1660e01b8152600401611436929190612223565b6020604051808303816000875af1158015611455573d6000803e3d6000fd5b505050506040513d601f19601f820116820180604052508101906114799190611dcd565b50505050565b60006103e8600383611491919061227b565b61149b91906122ec565b9050600660009054906101000a900473ffffffffffffffffffffffffffffffffffffffff1673ffffffffffffffffffffffffffffffffffffffff1663a9059cbb6114e3610d6a565b836040518363ffffffff1660e01b8152600401611501929190612223565b6020604051808303816000875af1158015611520573d6000803e3d6000fd5b505050506040513d601f19601f820116820180604052508101906115449190611dcd565b50600660009054906101000a900473ffffffffffffffffffffffffffffffffffffffff1673ffffffffffffffffffffffffffffffffffffffff1663a9059cbb8483600286611592919061227b565b61159c919061231d565b6040518363ffffffff1660e01b81526004016115b9929190612223565b6020604051808303816000875af11580156115d8573d6000803e3d6000fd5b505050506040513d601f19601f820116820180604052508101906115fc9190611dcd565b5092915050565b60006002600083815260200190815260200160002054905060006001611627610d93565b611631919061231d565b905060006003828154811061164957611648611e23565b5b90600052602060002001549050806003848154811061166b5761166a611e23565b5b906000526020600020018190555082600260008381526020019081526020016000208190555060038054806116a3576116a2612351565b5b60019003818190600052602060002001600090559055600260008581526020019081526020016000206000905560016000858152602001908152602001600020600080820160006101000a81549073ffffffffffffffffffffffffffffffffffffffff02191690556001820160006101000a81549073ffffffffffffffffffffffffffffffffffffffff0219169055600282016000905560038201600090556004820160009055505050505050565b6000838383604051602001611769939291906123d7565b6040516020818303038152906040528051906020012090509392505050565b600033905090565b600080fd5b6000819050919050565b6117a881611795565b81146117b357600080fd5b50565b6000813590506117c58161179f565b92915050565b6000819050919050565b6117de816117cb565b81146117e957600080fd5b50565b6000813590506117fb816117d5565b92915050565b6000806040838503121561181857611817611790565b5b6000611826858286016117b6565b9250506020611837858286016117ec565b9150509250929050565b60006020828403121561185757611856611790565b5b6000611865848285016117ec565b91505092915050565b600073ffffffffffffffffffffffffffffffffffffffff82169050919050565b60006118998261186e565b9050919050565b6118a98161188e565b82525050565b6118b881611795565b82525050565b6118c7816117cb565b82525050565b600060a0820190506118e260008301886118a0565b6118ef60208301876118a0565b6118fc60408301866118af565b61190960608301856118af565b61191660808301846118be565b9695505050505050565b600060208201905061193560008301846118be565b92915050565b6003811061194857600080fd5b50565b60008135905061195a8161193b565b92915050565b6000806040838503121561197757611976611790565b5b60006119858582860161194b565b92505060206119968582860161194b565b9150509250929050565b7f4e487b7100000000000000000000000000000000000000000000000000000000600052602160045260246000fd5b600381106119e0576119df6119a0565b5b50565b60008190506119f1826119cf565b919050565b6000611a01826119e3565b9050919050565b611a11816119f6565b82525050565b6000602082019050611a2c6000830184611a08565b92915050565b6000602082019050611a4760008301846118a0565b92915050565b611a568161188e565b8114611a6157600080fd5b50565b600081359050611a7381611a4d565b92915050565b600060208284031215611a8f57611a8e611790565b5b6000611a9d84828501611a64565b91505092915050565b600080600060608486031215611abf57611abe611790565b5b6000611acd868287016117ec565b9350506020611ade868287016117ec565b9250506040611aef868287016117ec565b9150509250925092565b60008060408385031215611b1057611b0f611790565b5b6000611b1e8582860161194b565b9250506020611b2f858286016117ec565b9150509250929050565b6000602082019050611b4e60008301846118af565b92915050565b600080600060608486031215611b6d57611b6c611790565b5b6000611b7b868287016117b6565b9350506020611b8c86828701611a64565b9250506040611b9d868287016117ec565b9150509250925092565b60038110611bb857611bb76119a0565b5b50565b6000819050611bc982611ba7565b919050565b6000611bd982611bbb565b9050919050565b611be981611bce565b82525050565b6000602082019050611c046000830184611be0565b92915050565b600082825260208201905092915050565b7f497320746865206a756467652e00000000000000000000000000000000000000600082015250565b6000611c51600d83611c0a565b9150611c5c82611c1b565b602082019050919050565b60006020820190508181036000830152611c8081611c44565b9050919050565b6000604082019050611c9c60008301856118a0565b611ca960208301846118a0565b9392505050565b600081519050611cbf816117d5565b92915050565b600060208284031215611cdb57611cda611790565b5b6000611ce984828501611cb0565b91505092915050565b7f4e6f7420656e6f75676820617070726f76616c2e000000000000000000000000600082015250565b6000611d28601483611c0a565b9150611d3382611cf2565b602082019050919050565b60006020820190508181036000830152611d5781611d1b565b9050919050565b6000606082019050611d7360008301866118a0565b611d8060208301856118a0565b611d8d60408301846118be565b949350505050565b60008115159050919050565b611daa81611d95565b8114611db557600080fd5b50565b600081519050611dc781611da1565b92915050565b600060208284031215611de357611de2611790565b5b6000611df184828501611db8565b91505092915050565b6000604082019050611e0f60008301856118af565b611e1c60208301846118be565b9392505050565b7f4e487b7100000000000000000000000000000000000000000000000000000000600052603260045260246000fd5b7f47616d65206e6f74206578697374732e00000000000000000000000000000000600082015250565b6000611e88601083611c0a565b9150611e9382611e52565b602082019050919050565b60006020820190508181036000830152611eb781611e7b565b9050919050565b7f4973207468652062616e6b65722e000000000000000000000000000000000000600082015250565b6000611ef4600e83611c0a565b9150611eff82611ebe565b602082019050919050565b60006020820190508181036000830152611f2381611ee7565b9050919050565b7f4973206e6f7420746865206a756467652e000000000000000000000000000000600082015250565b6000611f60601183611c0a565b9150611f6b82611f2a565b602082019050919050565b60006020820190508181036000830152611f8f81611f53565b9050919050565b6000604082019050611fab60008301856118be565b611fb860208301846118be565b9392505050565b7f4f776e61626c653a206e6577206f776e657220697320746865207a65726f206160008201527f6464726573730000000000000000000000000000000000000000000000000000602082015250565b600061201b602683611c0a565b915061202682611fbf565b604082019050919050565b6000602082019050818103600083015261204a8161200e565b9050919050565b600081905092915050565b7f5468726f772074797065206572726f723a200000000000000000000000000000600082015250565b6000612092601283612051565b915061209d8261205c565b601282019050919050565b60008160601b9050919050565b60006120c0826120a8565b9050919050565b60006120d2826120b5565b9050919050565b6120ea6120e58261188e565b6120c7565b82525050565b60006120fb82612085565b915061210782846120d9565b60148201915081905092915050565b600081519050919050565b60005b8381101561213f578082015181840152602081019050612124565b60008484015250505050565b6000601f19601f8301169050919050565b600061216782612116565b6121718185611c0a565b9350612181818560208601612121565b61218a8161214b565b840191505092915050565b600060208201905081810360008301526121af818461215c565b905092915050565b7f4f776e61626c653a2063616c6c6572206973206e6f7420746865206f776e6572600082015250565b60006121ed602083611c0a565b91506121f8826121b7565b602082019050919050565b6000602082019050818103600083015261221c816121e0565b9050919050565b600060408201905061223860008301856118a0565b61224560208301846118be565b9392505050565b7f4e487b7100000000000000000000000000000000000000000000000000000000600052601160045260246000fd5b6000612286826117cb565b9150612291836117cb565b925082820261229f816117cb565b915082820484148315176122b6576122b561224c565b5b5092915050565b7f4e487b7100000000000000000000000000000000000000000000000000000000600052601260045260246000fd5b60006122f7826117cb565b9150612302836117cb565b925082612312576123116122bd565b5b828204905092915050565b6000612328826117cb565b9150612333836117cb565b925082820390508181111561234b5761234a61224c565b5b92915050565b7f4e487b7100000000000000000000000000000000000000000000000000000000600052603160045260246000fd5b60008160f81b9050919050565b600061239882612380565b9050919050565b6123b06123ab82611bce565b61238d565b82525050565b6000819050919050565b6123d16123cc826117cb565b6123b6565b82525050565b60006123e382866120d9565b6014820191506123f3828561239f565b60018201915061240382846123c0565b60208201915081905094935050505056fea2646970667358221220a94f39f0cf190f3188877be016a8d819096a31f3f3c9bd6caa7c80178e1cf10d64736f6c63430008130033",
  "linkReferences": {},
  "deployedLinkReferences": {}
}